{
  "_format": "hh-sol-artifact-1",
  "contractName": "ProkenNFT",
  "sourceName": "contracts/ProkenNFT.sol",
  "abi": [
    {
      "inputs": [
        {
          "internalType": "address",
          "name": "_prokenToken",
          "type": "address"
        }
      ],
      "stateMutability": "nonpayable",
      "type": "constructor"
    },
    {
      "inputs": [
        {
          "internalType": "address",
          "name": "sender",
          "type": "address"
        },
        {
          "internalType": "uint256",
          "name": "tokenId",
          "type": "uint256"
        },
        {
          "internalType": "address",
          "name": "owner",
          "type": "address"
        }
      ],
      "name": "ERC721IncorrectOwner",
      "type": "error"
    },
    {
      "inputs": [
        {
          "internalType": "address",
          "name": "operator",
          "type": "address"
        },
        {
          "internalType": "uint256",
          "name": "tokenId",
          "type": "uint256"
        }
      ],
      "name": "ERC721InsufficientApproval",
      "type": "error"
    },
    {
      "inputs": [
        {
          "internalType": "address",
          "name": "approver",
          "type": "address"
        }
      ],
      "name": "ERC721InvalidApprover",
      "type": "error"
    },
    {
      "inputs": [
        {
          "internalType": "address",
          "name": "operator",
          "type": "address"
        }
      ],
      "name": "ERC721InvalidOperator",
      "type": "error"
    },
    {
      "inputs": [
        {
          "internalType": "address",
          "name": "owner",
          "type": "address"
        }
      ],
      "name": "ERC721InvalidOwner",
      "type": "error"
    },
    {
      "inputs": [
        {
          "internalType": "address",
          "name": "receiver",
          "type": "address"
        }
      ],
      "name": "ERC721InvalidReceiver",
      "type": "error"
    },
    {
      "inputs": [
        {
          "internalType": "address",
          "name": "sender",
          "type": "address"
        }
      ],
      "name": "ERC721InvalidSender",
      "type": "error"
    },
    {
      "inputs": [
        {
          "internalType": "uint256",
          "name": "tokenId",
          "type": "uint256"
        }
      ],
      "name": "ERC721NonexistentToken",
      "type": "error"
    },
    {
      "inputs": [
        {
          "internalType": "address",
          "name": "owner",
          "type": "address"
        }
      ],
      "name": "OwnableInvalidOwner",
      "type": "error"
    },
    {
      "inputs": [
        {
          "internalType": "address",
          "name": "account",
          "type": "address"
        }
      ],
      "name": "OwnableUnauthorizedAccount",
      "type": "error"
    },
    {
      "anonymous": false,
      "inputs": [
        {
          "indexed": true,
          "internalType": "address",
          "name": "owner",
          "type": "address"
        },
        {
          "indexed": true,
          "internalType": "address",
          "name": "approved",
          "type": "address"
        },
        {
          "indexed": true,
          "internalType": "uint256",
          "name": "tokenId",
          "type": "uint256"
        }
      ],
      "name": "Approval",
      "type": "event"
    },
    {
      "anonymous": false,
      "inputs": [
        {
          "indexed": true,
          "internalType": "address",
          "name": "owner",
          "type": "address"
        },
        {
          "indexed": true,
          "internalType": "address",
          "name": "operator",
          "type": "address"
        },
        {
          "indexed": false,
          "internalType": "bool",
          "name": "approved",
          "type": "bool"
        }
      ],
      "name": "ApprovalForAll",
      "type": "event"
    },
    {
      "anonymous": false,
      "inputs": [
        {
          "indexed": false,
          "internalType": "uint256",
          "name": "_fromTokenId",
          "type": "uint256"
        },
        {
          "indexed": false,
          "internalType": "uint256",
          "name": "_toTokenId",
          "type": "uint256"
        }
      ],
      "name": "BatchMetadataUpdate",
      "type": "event"
    },
    {
      "anonymous": false,
      "inputs": [
        {
          "indexed": false,
          "internalType": "uint256",
          "name": "_tokenId",
          "type": "uint256"
        }
      ],
      "name": "MetadataUpdate",
      "type": "event"
    },
    {
      "anonymous": false,
      "inputs": [
        {
          "indexed": true,
          "internalType": "address",
          "name": "previousOwner",
          "type": "address"
        },
        {
          "indexed": true,
          "internalType": "address",
          "name": "newOwner",
          "type": "address"
        }
      ],
      "name": "OwnershipTransferred",
      "type": "event"
    },
    {
      "anonymous": false,
      "inputs": [
        {
          "indexed": true,
          "internalType": "address",
          "name": "from",
          "type": "address"
        },
        {
          "indexed": true,
          "internalType": "address",
          "name": "to",
          "type": "address"
        },
        {
          "indexed": true,
          "internalType": "uint256",
          "name": "tokenId",
          "type": "uint256"
        }
      ],
      "name": "Transfer",
      "type": "event"
    },
    {
      "inputs": [
        {
          "internalType": "address",
          "name": "to",
          "type": "address"
        },
        {
          "internalType": "uint256",
          "name": "tokenId",
          "type": "uint256"
        }
      ],
      "name": "approve",
      "outputs": [],
      "stateMutability": "nonpayable",
      "type": "function"
    },
    {
      "inputs": [
        {
          "internalType": "address",
          "name": "owner",
          "type": "address"
        }
      ],
      "name": "balanceOf",
      "outputs": [
        {
          "internalType": "uint256",
          "name": "",
          "type": "uint256"
        }
      ],
      "stateMutability": "view",
      "type": "function"
    },
    {
      "inputs": [
        {
          "internalType": "uint256",
          "name": "tokenId",
          "type": "uint256"
        }
      ],
      "name": "buyNFT",
      "outputs": [],
      "stateMutability": "nonpayable",
      "type": "function"
    },
    {
      "inputs": [
        {
          "internalType": "uint256",
          "name": "tokenId",
          "type": "uint256"
        }
      ],
      "name": "getApproved",
      "outputs": [
        {
          "internalType": "address",
          "name": "",
          "type": "address"
        }
      ],
      "stateMutability": "view",
      "type": "function"
    },
    {
      "inputs": [
        {
          "internalType": "address",
          "name": "owner",
          "type": "address"
        },
        {
          "internalType": "address",
          "name": "operator",
          "type": "address"
        }
      ],
      "name": "isApprovedForAll",
      "outputs": [
        {
          "internalType": "bool",
          "name": "",
          "type": "bool"
        }
      ],
      "stateMutability": "view",
      "type": "function"
    },
    {
      "inputs": [
        {
          "internalType": "uint256",
          "name": "",
          "type": "uint256"
        }
      ],
      "name": "isMinted",
      "outputs": [
        {
          "internalType": "bool",
          "name": "",
          "type": "bool"
        }
      ],
      "stateMutability": "view",
      "type": "function"
    },
    {
      "inputs": [
        {
          "internalType": "string",
          "name": "tokenURI",
          "type": "string"
        },
        {
          "internalType": "uint256",
          "name": "price",
          "type": "uint256"
        }
      ],
      "name": "mintNFT",
      "outputs": [
        {
          "internalType": "uint256",
          "name": "",
          "type": "uint256"
        }
      ],
      "stateMutability": "nonpayable",
      "type": "function"
    },
    {
      "inputs": [],
      "name": "name",
      "outputs": [
        {
          "internalType": "string",
          "name": "",
          "type": "string"
        }
      ],
      "stateMutability": "view",
      "type": "function"
    },
    {
      "inputs": [
        {
          "internalType": "uint256",
          "name": "",
          "type": "uint256"
        }
      ],
      "name": "nftPrices",
      "outputs": [
        {
          "internalType": "uint256",
          "name": "",
          "type": "uint256"
        }
      ],
      "stateMutability": "view",
      "type": "function"
    },
    {
      "inputs": [],
      "name": "owner",
      "outputs": [
        {
          "internalType": "address",
          "name": "",
          "type": "address"
        }
      ],
      "stateMutability": "view",
      "type": "function"
    },
    {
      "inputs": [
        {
          "internalType": "uint256",
          "name": "tokenId",
          "type": "uint256"
        }
      ],
      "name": "ownerOf",
      "outputs": [
        {
          "internalType": "address",
          "name": "",
          "type": "address"
        }
      ],
      "stateMutability": "view",
      "type": "function"
    },
    {
      "inputs": [],
      "name": "prokenToken",
      "outputs": [
        {
          "internalType": "contract IERC20",
          "name": "",
          "type": "address"
        }
      ],
      "stateMutability": "view",
      "type": "function"
    },
    {
      "inputs": [],
      "name": "renounceOwnership",
      "outputs": [],
      "stateMutability": "nonpayable",
      "type": "function"
    },
    {
      "inputs": [
        {
          "internalType": "address",
          "name": "from",
          "type": "address"
        },
        {
          "internalType": "address",
          "name": "to",
          "type": "address"
        },
        {
          "internalType": "uint256",
          "name": "tokenId",
          "type": "uint256"
        }
      ],
      "name": "safeTransferFrom",
      "outputs": [],
      "stateMutability": "nonpayable",
      "type": "function"
    },
    {
      "inputs": [
        {
          "internalType": "address",
          "name": "from",
          "type": "address"
        },
        {
          "internalType": "address",
          "name": "to",
          "type": "address"
        },
        {
          "internalType": "uint256",
          "name": "tokenId",
          "type": "uint256"
        },
        {
          "internalType": "bytes",
          "name": "data",
          "type": "bytes"
        }
      ],
      "name": "safeTransferFrom",
      "outputs": [],
      "stateMutability": "nonpayable",
      "type": "function"
    },
    {
      "inputs": [
        {
          "internalType": "address",
          "name": "operator",
          "type": "address"
        },
        {
          "internalType": "bool",
          "name": "approved",
          "type": "bool"
        }
      ],
      "name": "setApprovalForAll",
      "outputs": [],
      "stateMutability": "nonpayable",
      "type": "function"
    },
    {
      "inputs": [
        {
          "internalType": "bytes4",
          "name": "interfaceId",
          "type": "bytes4"
        }
      ],
      "name": "supportsInterface",
      "outputs": [
        {
          "internalType": "bool",
          "name": "",
          "type": "bool"
        }
      ],
      "stateMutability": "view",
      "type": "function"
    },
    {
      "inputs": [],
      "name": "symbol",
      "outputs": [
        {
          "internalType": "string",
          "name": "",
          "type": "string"
        }
      ],
      "stateMutability": "view",
      "type": "function"
    },
    {
      "inputs": [],
      "name": "tokenCounter",
      "outputs": [
        {
          "internalType": "uint256",
          "name": "",
          "type": "uint256"
        }
      ],
      "stateMutability": "view",
      "type": "function"
    },
    {
      "inputs": [
        {
          "internalType": "uint256",
          "name": "tokenId",
          "type": "uint256"
        }
      ],
      "name": "tokenURI",
      "outputs": [
        {
          "internalType": "string",
          "name": "",
          "type": "string"
        }
      ],
      "stateMutability": "view",
      "type": "function"
    },
    {
      "inputs": [
        {
          "internalType": "address",
          "name": "from",
          "type": "address"
        },
        {
          "internalType": "address",
          "name": "to",
          "type": "address"
        },
        {
          "internalType": "uint256",
          "name": "tokenId",
          "type": "uint256"
        }
      ],
      "name": "transferFrom",
      "outputs": [],
      "stateMutability": "nonpayable",
      "type": "function"
    },
    {
      "inputs": [
        {
          "internalType": "address",
          "name": "newOwner",
          "type": "address"
        }
      ],
      "name": "transferOwnership",
      "outputs": [],
      "stateMutability": "nonpayable",
      "type": "function"
    },
    {
      "inputs": [
        {
          "internalType": "address",
          "name": "to",
          "type": "address"
        },
        {
          "internalType": "uint256",
          "name": "amount",
          "type": "uint256"
        }
      ],
      "name": "withdrawProken",
      "outputs": [],
      "stateMutability": "nonpayable",
      "type": "function"
    }
  ],
  "bytecode": "0x608060405234801561001057600080fd5b50604051613376380380613376833981810160405281019061003291906102b3565b336040518060400160405280600981526020017f50726f6b656e4e465400000000000000000000000000000000000000000000008152506040518060400160405280600481526020017f504e46540000000000000000000000000000000000000000000000000000000081525081600090816100ae9190610530565b5080600190816100be9190610530565b505050600073ffffffffffffffffffffffffffffffffffffffff168173ffffffffffffffffffffffffffffffffffffffff16036101335760006040517f1e4fbdf700000000000000000000000000000000000000000000000000000000815260040161012a9190610611565b60405180910390fd5b6101428161018a60201b60201c565b5080600860006101000a81548173ffffffffffffffffffffffffffffffffffffffff021916908373ffffffffffffffffffffffffffffffffffffffff1602179055505061062c565b6000600760009054906101000a900473ffffffffffffffffffffffffffffffffffffffff16905081600760006101000a81548173ffffffffffffffffffffffffffffffffffffffff021916908373ffffffffffffffffffffffffffffffffffffffff1602179055508173ffffffffffffffffffffffffffffffffffffffff168173ffffffffffffffffffffffffffffffffffffffff167f8be0079c531659141344cd1fd0a4f28419497f9722a3daafe3b4186f6b6457e060405160405180910390a35050565b600080fd5b600073ffffffffffffffffffffffffffffffffffffffff82169050919050565b600061028082610255565b9050919050565b61029081610275565b811461029b57600080fd5b50565b6000815190506102ad81610287565b92915050565b6000602082840312156102c9576102c8610250565b5b60006102d78482850161029e565b91505092915050565b600081519050919050565b7f4e487b7100000000000000000000000000000000000000000000000000000000600052604160045260246000fd5b7f4e487b7100000000000000000000000000000000000000000000000000000000600052602260045260246000fd5b6000600282049050600182168061036157607f821691505b6020821081036103745761037361031a565b5b50919050565b60008190508160005260206000209050919050565b60006020601f8301049050919050565b600082821b905092915050565b6000600883026103dc7fffffffffffffffffffffffffffffffffffffffffffffffffffffffffffffffff8261039f565b6103e6868361039f565b95508019841693508086168417925050509392505050565b6000819050919050565b6000819050919050565b600061042d610428610423846103fe565b610408565b6103fe565b9050919050565b6000819050919050565b61044783610412565b61045b61045382610434565b8484546103ac565b825550505050565b600090565b610470610463565b61047b81848461043e565b505050565b5b8181101561049f57610494600082610468565b600181019050610481565b5050565b601f8211156104e4576104b58161037a565b6104be8461038f565b810160208510156104cd578190505b6104e16104d98561038f565b830182610480565b50505b505050565b600082821c905092915050565b6000610507600019846008026104e9565b1980831691505092915050565b600061052083836104f6565b9150826002028217905092915050565b610539826102e0565b67ffffffffffffffff811115610552576105516102eb565b5b61055c8254610349565b6105678282856104a3565b600060209050601f83116001811461059a5760008415610588578287015190505b6105928582610514565b8655506105fa565b601f1984166105a88661037a565b60005b828110156105d0578489015182556001820191506020850194506020810190506105ab565b868310156105ed57848901516105e9601f8916826104f6565b8355505b6001600288020188555050505b505050505050565b61060b81610275565b82525050565b60006020820190506106266000830184610602565b92915050565b612d3b8061063b6000396000f3fe608060405234801561001057600080fd5b506004361061014d5760003560e01c8063715018a6116100c3578063b88d4fde1161007c578063b88d4fde1461039c578063c87b56dd146103b8578063d082e381146103e8578063d9f10a2b14610406578063e985e9c514610436578063f2fde38b146104665761014d565b8063715018a6146103005780638da5cb5b1461030a5780638e1a7ce61461032857806395d89b411461034457806396b2263314610362578063a22cb465146103805761014d565b806333c41a901161011557806333c41a901461020857806342842e0e1461023857806351ed8288146102545780635afa3a72146102705780636352211e146102a057806370a08231146102d05761014d565b806301ffc9a71461015257806306fdde0314610182578063081812fc146101a0578063095ea7b3146101d057806323b872dd146101ec575b600080fd5b61016c60048036038101906101679190611efa565b610482565b6040516101799190611f42565b60405180910390f35b61018a6104e3565b6040516101979190611fed565b60405180910390f35b6101ba60048036038101906101b59190612045565b610575565b6040516101c791906120b3565b60405180910390f35b6101ea60048036038101906101e591906120fa565b610591565b005b6102066004803603810190610201919061213a565b6105a7565b005b610222600480360381019061021d9190612045565b6106a9565b60405161022f9190611f42565b60405180910390f35b610252600480360381019061024d919061213a565b6106c9565b005b61026e60048036038101906102699190612045565b6106e9565b005b61028a600480360381019061028591906122c2565b6108d3565b604051610297919061232d565b60405180910390f35b6102ba60048036038101906102b59190612045565b610928565b6040516102c791906120b3565b60405180910390f35b6102ea60048036038101906102e59190612348565b61093a565b6040516102f7919061232d565b60405180910390f35b6103086109f4565b005b610312610a08565b60405161031f91906120b3565b60405180910390f35b610342600480360381019061033d91906120fa565b610a32565b005b61034c610b1d565b6040516103599190611fed565b60405180910390f35b61036a610baf565b60405161037791906123d4565b60405180910390f35b61039a6004803603810190610395919061241b565b610bd5565b005b6103b660048036038101906103b191906124fc565b610beb565b005b6103d260048036038101906103cd9190612045565b610c10565b6040516103df9190611fed565b60405180910390f35b6103f0610d23565b6040516103fd919061232d565b60405180910390f35b610420600480360381019061041b9190612045565b610d2d565b60405161042d919061232d565b60405180910390f35b610450600480360381019061044b919061257f565b610d45565b60405161045d9190611f42565b60405180910390f35b610480600480360381019061047b9190612348565b610dd9565b005b6000634906490660e01b7bffffffffffffffffffffffffffffffffffffffffffffffffffffffff1916827bffffffffffffffffffffffffffffffffffffffffffffffffffffffff191614806104dc57506104db82610e5f565b5b9050919050565b6060600080546104f2906125ee565b80601f016020809104026020016040519081016040528092919081815260200182805461051e906125ee565b801561056b5780601f106105405761010080835404028352916020019161056b565b820191906000526020600020905b81548152906001019060200180831161054e57829003601f168201915b5050505050905090565b600061058082610f41565b5061058a82610fc9565b9050919050565b6105a3828261059e611006565b61100e565b5050565b600073ffffffffffffffffffffffffffffffffffffffff168273ffffffffffffffffffffffffffffffffffffffff16036106195760006040517f64a0ae9200000000000000000000000000000000000000000000000000000000815260040161061091906120b3565b60405180910390fd5b600061062d8383610628611006565b611020565b90508373ffffffffffffffffffffffffffffffffffffffff168173ffffffffffffffffffffffffffffffffffffffff16146106a3578382826040517f64283d7b00000000000000000000000000000000000000000000000000000000815260040161069a9392919061261f565b60405180910390fd5b50505050565b600b6020528060005260406000206000915054906101000a900460ff1681565b6106e483838360405180602001604052806000815250610beb565b505050565b600b600082815260200190815260200160002060009054906101000a900460ff161561074a576040517f08c379a0000000000000000000000000000000000000000000000000000000008152600401610741906126a2565b60405180910390fd5b6000600a600083815260200190815260200160002054116107a0576040517f08c379a00000000000000000000000000000000000000000000000000000000081526004016107979061270e565b60405180910390fd5b6000600a6000838152602001908152602001600020549050600860009054906101000a900473ffffffffffffffffffffffffffffffffffffffff1673ffffffffffffffffffffffffffffffffffffffff166323b872dd3330846040518463ffffffff1660e01b81526004016108179392919061272e565b6020604051808303816000875af1158015610836573d6000803e3d6000fd5b505050506040513d601f19601f8201168201806040525081019061085a919061277a565b610899576040517f08c379a0000000000000000000000000000000000000000000000000000000008152600401610890906127f3565b60405180910390fd5b6108a3338361123a565b6001600b600084815260200190815260200160002060006101000a81548160ff0219169083151502179055505050565b60006108dd611333565b600960008154809291906108f090612842565b91905055506000600954905061090681856113ba565b82600a6000838152602001908152602001600020819055508091505092915050565b600061093382610f41565b9050919050565b60008073ffffffffffffffffffffffffffffffffffffffff168273ffffffffffffffffffffffffffffffffffffffff16036109ad5760006040517f89c62b640000000000000000000000000000000000000000000000000000000081526004016109a491906120b3565b60405180910390fd5b600360008373ffffffffffffffffffffffffffffffffffffffff1673ffffffffffffffffffffffffffffffffffffffff168152602001908152602001600020549050919050565b6109fc611333565b610a066000611416565b565b6000600760009054906101000a900473ffffffffffffffffffffffffffffffffffffffff16905090565b610a3a611333565b600860009054906101000a900473ffffffffffffffffffffffffffffffffffffffff1673ffffffffffffffffffffffffffffffffffffffff1663a9059cbb83836040518363ffffffff1660e01b8152600401610a9792919061288a565b6020604051808303816000875af1158015610ab6573d6000803e3d6000fd5b505050506040513d601f19601f82011682018060405250810190610ada919061277a565b610b19576040517f08c379a0000000000000000000000000000000000000000000000000000000008152600401610b10906128ff565b60405180910390fd5b5050565b606060018054610b2c906125ee565b80601f0160208091040260200160405190810160405280929190818152602001828054610b58906125ee565b8015610ba55780601f10610b7a57610100808354040283529160200191610ba5565b820191906000526020600020905b815481529060010190602001808311610b8857829003601f168201915b5050505050905090565b600860009054906101000a900473ffffffffffffffffffffffffffffffffffffffff1681565b610be7610be0611006565b83836114dc565b5050565b610bf68484846105a7565b610c0a610c01611006565b8585858561164b565b50505050565b6060610c1b82610f41565b506000600660008481526020019081526020016000208054610c3c906125ee565b80601f0160208091040260200160405190810160405280929190818152602001828054610c68906125ee565b8015610cb55780601f10610c8a57610100808354040283529160200191610cb5565b820191906000526020600020905b815481529060010190602001808311610c9857829003601f168201915b505050505090506000610cc66117fc565b90506000815103610cdb578192505050610d1e565b600082511115610d10578082604051602001610cf892919061295b565b60405160208183030381529060405292505050610d1e565b610d1984611813565b925050505b919050565b6000600954905090565b600a6020528060005260406000206000915090505481565b6000600560008473ffffffffffffffffffffffffffffffffffffffff1673ffffffffffffffffffffffffffffffffffffffff16815260200190815260200160002060008373ffffffffffffffffffffffffffffffffffffffff1673ffffffffffffffffffffffffffffffffffffffff16815260200190815260200160002060009054906101000a900460ff16905092915050565b610de1611333565b600073ffffffffffffffffffffffffffffffffffffffff168173ffffffffffffffffffffffffffffffffffffffff1603610e535760006040517f1e4fbdf7000000000000000000000000000000000000000000000000000000008152600401610e4a91906120b3565b60405180910390fd5b610e5c81611416565b50565b60007f80ac58cd000000000000000000000000000000000000000000000000000000007bffffffffffffffffffffffffffffffffffffffffffffffffffffffff1916827bffffffffffffffffffffffffffffffffffffffffffffffffffffffff19161480610f2a57507f5b5e139f000000000000000000000000000000000000000000000000000000007bffffffffffffffffffffffffffffffffffffffffffffffffffffffff1916827bffffffffffffffffffffffffffffffffffffffffffffffffffffffff1916145b80610f3a5750610f398261187c565b5b9050919050565b600080610f4d836118e6565b9050600073ffffffffffffffffffffffffffffffffffffffff168173ffffffffffffffffffffffffffffffffffffffff1603610fc057826040517f7e273289000000000000000000000000000000000000000000000000000000008152600401610fb7919061232d565b60405180910390fd5b80915050919050565b60006004600083815260200190815260200160002060009054906101000a900473ffffffffffffffffffffffffffffffffffffffff169050919050565b600033905090565b61101b8383836001611923565b505050565b60008061102c846118e6565b9050600073ffffffffffffffffffffffffffffffffffffffff168373ffffffffffffffffffffffffffffffffffffffff161461106e5761106d818486611ae8565b5b600073ffffffffffffffffffffffffffffffffffffffff168173ffffffffffffffffffffffffffffffffffffffff16146110ff576110b0600085600080611923565b6001600360008373ffffffffffffffffffffffffffffffffffffffff1673ffffffffffffffffffffffffffffffffffffffff168152602001908152602001600020600082825403925050819055505b600073ffffffffffffffffffffffffffffffffffffffff168573ffffffffffffffffffffffffffffffffffffffff1614611182576001600360008773ffffffffffffffffffffffffffffffffffffffff1673ffffffffffffffffffffffffffffffffffffffff168152602001908152602001600020600082825401925050819055505b846002600086815260200190815260200160002060006101000a81548173ffffffffffffffffffffffffffffffffffffffff021916908373ffffffffffffffffffffffffffffffffffffffff160217905550838573ffffffffffffffffffffffffffffffffffffffff168273ffffffffffffffffffffffffffffffffffffffff167fddf252ad1be2c89b69c2b068fc378daa952ba7f163c4a11628f55a4df523b3ef60405160405180910390a4809150509392505050565b600073ffffffffffffffffffffffffffffffffffffffff168273ffffffffffffffffffffffffffffffffffffffff16036112ac5760006040517f64a0ae920000000000000000000000000000000000000000000000000000000081526004016112a391906120b3565b60405180910390fd5b60006112ba83836000611020565b9050600073ffffffffffffffffffffffffffffffffffffffff168173ffffffffffffffffffffffffffffffffffffffff161461132e5760006040517f73c6ac6e00000000000000000000000000000000000000000000000000000000815260040161132591906120b3565b60405180910390fd5b505050565b61133b611006565b73ffffffffffffffffffffffffffffffffffffffff16611359610a08565b73ffffffffffffffffffffffffffffffffffffffff16146113b85761137c611006565b6040517f118cdaa70000000000000000000000000000000000000000000000000000000081526004016113af91906120b3565b60405180910390fd5b565b806006600084815260200190815260200160002090816113da9190612b21565b507ff8e1a15aba9398e019f0b49df1a4fde98ee17ae345cb5f6b5e2c27f5033e8ce78260405161140a919061232d565b60405180910390a15050565b6000600760009054906101000a900473ffffffffffffffffffffffffffffffffffffffff16905081600760006101000a81548173ffffffffffffffffffffffffffffffffffffffff021916908373ffffffffffffffffffffffffffffffffffffffff1602179055508173ffffffffffffffffffffffffffffffffffffffff168173ffffffffffffffffffffffffffffffffffffffff167f8be0079c531659141344cd1fd0a4f28419497f9722a3daafe3b4186f6b6457e060405160405180910390a35050565b600073ffffffffffffffffffffffffffffffffffffffff168273ffffffffffffffffffffffffffffffffffffffff160361154d57816040517f5b08ba1800000000000000000000000000000000000000000000000000000000815260040161154491906120b3565b60405180910390fd5b80600560008573ffffffffffffffffffffffffffffffffffffffff1673ffffffffffffffffffffffffffffffffffffffff16815260200190815260200160002060008473ffffffffffffffffffffffffffffffffffffffff1673ffffffffffffffffffffffffffffffffffffffff16815260200190815260200160002060006101000a81548160ff0219169083151502179055508173ffffffffffffffffffffffffffffffffffffffff168373ffffffffffffffffffffffffffffffffffffffff167f17307eab39ab6107e8899845ad3d59bd9653f200f220920489ca2b5937696c318360405161163e9190611f42565b60405180910390a3505050565b60008373ffffffffffffffffffffffffffffffffffffffff163b11156117f5578273ffffffffffffffffffffffffffffffffffffffff1663150b7a02868685856040518563ffffffff1660e01b81526004016116aa9493929190612c48565b6020604051808303816000875af19250505080156116e657506040513d601f19601f820116820180604052508101906116e39190612ca9565b60015b61176a573d8060008114611716576040519150601f19603f3d011682016040523d82523d6000602084013e61171b565b606091505b50600081510361176257836040517f64a0ae9200000000000000000000000000000000000000000000000000000000815260040161175991906120b3565b60405180910390fd5b805160208201fd5b63150b7a0260e01b7bffffffffffffffffffffffffffffffffffffffffffffffffffffffff1916817bffffffffffffffffffffffffffffffffffffffffffffffffffffffff1916146117f357836040517f64a0ae920000000000000000000000000000000000000000000000000000000081526004016117ea91906120b3565b60405180910390fd5b505b5050505050565b606060405180602001604052806000815250905090565b606061181e82610f41565b5060006118296117fc565b905060008151116118495760405180602001604052806000815250611874565b8061185384611bac565b60405160200161186492919061295b565b6040516020818303038152906040525b915050919050565b60007f01ffc9a7000000000000000000000000000000000000000000000000000000007bffffffffffffffffffffffffffffffffffffffffffffffffffffffff1916827bffffffffffffffffffffffffffffffffffffffffffffffffffffffff1916149050919050565b60006002600083815260200190815260200160002060009054906101000a900473ffffffffffffffffffffffffffffffffffffffff169050919050565b808061195c5750600073ffffffffffffffffffffffffffffffffffffffff168273ffffffffffffffffffffffffffffffffffffffff1614155b15611a9057600061196c84610f41565b9050600073ffffffffffffffffffffffffffffffffffffffff168373ffffffffffffffffffffffffffffffffffffffff16141580156119d757508273ffffffffffffffffffffffffffffffffffffffff168173ffffffffffffffffffffffffffffffffffffffff1614155b80156119ea57506119e88184610d45565b155b15611a2c57826040517fa9fbf51f000000000000000000000000000000000000000000000000000000008152600401611a2391906120b3565b60405180910390fd5b8115611a8e57838573ffffffffffffffffffffffffffffffffffffffff168273ffffffffffffffffffffffffffffffffffffffff167f8c5be1e5ebec7d5bd14f71427d1e84f3dd0314c0f7b2291e5b200ac8c7c3b92560405160405180910390a45b505b836004600085815260200190815260200160002060006101000a81548173ffffffffffffffffffffffffffffffffffffffff021916908373ffffffffffffffffffffffffffffffffffffffff16021790555050505050565b611af3838383611c7a565b611ba757600073ffffffffffffffffffffffffffffffffffffffff168373ffffffffffffffffffffffffffffffffffffffff1603611b6857806040517f7e273289000000000000000000000000000000000000000000000000000000008152600401611b5f919061232d565b60405180910390fd5b81816040517f177e802f000000000000000000000000000000000000000000000000000000008152600401611b9e92919061288a565b60405180910390fd5b505050565b606060006001611bbb84611d3b565b01905060008167ffffffffffffffff811115611bda57611bd9612197565b5b6040519080825280601f01601f191660200182016040528015611c0c5781602001600182028036833780820191505090505b509050600082602083010190505b600115611c6f578080600190039150507f3031323334353637383961626364656600000000000000000000000000000000600a86061a8153600a8581611c6357611c62612cd6565b5b04945060008503611c1a575b819350505050919050565b60008073ffffffffffffffffffffffffffffffffffffffff168373ffffffffffffffffffffffffffffffffffffffff1614158015611d3257508273ffffffffffffffffffffffffffffffffffffffff168473ffffffffffffffffffffffffffffffffffffffff161480611cf35750611cf28484610d45565b5b80611d3157508273ffffffffffffffffffffffffffffffffffffffff16611d1983610fc9565b73ffffffffffffffffffffffffffffffffffffffff16145b5b90509392505050565b600080600090507a184f03e93ff9f4daa797ed6e38ed64bf6a1f0100000000000000008310611d99577a184f03e93ff9f4daa797ed6e38ed64bf6a1f0100000000000000008381611d8f57611d8e612cd6565b5b0492506040810190505b6d04ee2d6d415b85acef81000000008310611dd6576d04ee2d6d415b85acef81000000008381611dcc57611dcb612cd6565b5b0492506020810190505b662386f26fc100008310611e0557662386f26fc100008381611dfb57611dfa612cd6565b5b0492506010810190505b6305f5e1008310611e2e576305f5e1008381611e2457611e23612cd6565b5b0492506008810190505b6127108310611e53576127108381611e4957611e48612cd6565b5b0492506004810190505b60648310611e765760648381611e6c57611e6b612cd6565b5b0492506002810190505b600a8310611e85576001810190505b80915050919050565b6000604051905090565b600080fd5b600080fd5b60007fffffffff0000000000000000000000000000000000000000000000000000000082169050919050565b611ed781611ea2565b8114611ee257600080fd5b50565b600081359050611ef481611ece565b92915050565b600060208284031215611f1057611f0f611e98565b5b6000611f1e84828501611ee5565b91505092915050565b60008115159050919050565b611f3c81611f27565b82525050565b6000602082019050611f576000830184611f33565b92915050565b600081519050919050565b600082825260208201905092915050565b60005b83811015611f97578082015181840152602081019050611f7c565b60008484015250505050565b6000601f19601f8301169050919050565b6000611fbf82611f5d565b611fc98185611f68565b9350611fd9818560208601611f79565b611fe281611fa3565b840191505092915050565b600060208201905081810360008301526120078184611fb4565b905092915050565b6000819050919050565b6120228161200f565b811461202d57600080fd5b50565b60008135905061203f81612019565b92915050565b60006020828403121561205b5761205a611e98565b5b600061206984828501612030565b91505092915050565b600073ffffffffffffffffffffffffffffffffffffffff82169050919050565b600061209d82612072565b9050919050565b6120ad81612092565b82525050565b60006020820190506120c860008301846120a4565b92915050565b6120d781612092565b81146120e257600080fd5b50565b6000813590506120f4816120ce565b92915050565b6000806040838503121561211157612110611e98565b5b600061211f858286016120e5565b925050602061213085828601612030565b9150509250929050565b60008060006060848603121561215357612152611e98565b5b6000612161868287016120e5565b9350506020612172868287016120e5565b925050604061218386828701612030565b9150509250925092565b600080fd5b600080fd5b7f4e487b7100000000000000000000000000000000000000000000000000000000600052604160045260246000fd5b6121cf82611fa3565b810181811067ffffffffffffffff821117156121ee576121ed612197565b5b80604052505050565b6000612201611e8e565b905061220d82826121c6565b919050565b600067ffffffffffffffff82111561222d5761222c612197565b5b61223682611fa3565b9050602081019050919050565b82818337600083830152505050565b600061226561226084612212565b6121f7565b90508281526020810184848401111561228157612280612192565b5b61228c848285612243565b509392505050565b600082601f8301126122a9576122a861218d565b5b81356122b9848260208601612252565b91505092915050565b600080604083850312156122d9576122d8611e98565b5b600083013567ffffffffffffffff8111156122f7576122f6611e9d565b5b61230385828601612294565b925050602061231485828601612030565b9150509250929050565b6123278161200f565b82525050565b6000602082019050612342600083018461231e565b92915050565b60006020828403121561235e5761235d611e98565b5b600061236c848285016120e5565b91505092915050565b6000819050919050565b600061239a61239561239084612072565b612375565b612072565b9050919050565b60006123ac8261237f565b9050919050565b60006123be826123a1565b9050919050565b6123ce816123b3565b82525050565b60006020820190506123e960008301846123c5565b92915050565b6123f881611f27565b811461240357600080fd5b50565b600081359050612415816123ef565b92915050565b6000806040838503121561243257612431611e98565b5b6000612440858286016120e5565b925050602061245185828601612406565b9150509250929050565b600067ffffffffffffffff82111561247657612475612197565b5b61247f82611fa3565b9050602081019050919050565b600061249f61249a8461245b565b6121f7565b9050828152602081018484840111156124bb576124ba612192565b5b6124c6848285612243565b509392505050565b600082601f8301126124e3576124e261218d565b5b81356124f384826020860161248c565b91505092915050565b6000806000806080858703121561251657612515611e98565b5b6000612524878288016120e5565b9450506020612535878288016120e5565b935050604061254687828801612030565b925050606085013567ffffffffffffffff81111561256757612566611e9d565b5b612573878288016124ce565b91505092959194509250565b6000806040838503121561259657612595611e98565b5b60006125a4858286016120e5565b92505060206125b5858286016120e5565b9150509250929050565b7f4e487b7100000000000000000000000000000000000000000000000000000000600052602260045260246000fd5b6000600282049050600182168061260657607f821691505b602082108103612619576126186125bf565b5b50919050565b600060608201905061263460008301866120a4565b612641602083018561231e565b61264e60408301846120a4565b949350505050565b7f4e465420616c726561647920736f6c6400000000000000000000000000000000600082015250565b600061268c601083611f68565b915061269782612656565b602082019050919050565b600060208201905081810360008301526126bb8161267f565b9050919050565b7f4e4654206e6f7420666f722073616c6500000000000000000000000000000000600082015250565b60006126f8601083611f68565b9150612703826126c2565b602082019050919050565b60006020820190508181036000830152612727816126eb565b9050919050565b600060608201905061274360008301866120a4565b61275060208301856120a4565b61275d604083018461231e565b949350505050565b600081519050612774816123ef565b92915050565b6000602082840312156127905761278f611e98565b5b600061279e84828501612765565b91505092915050565b7f5061796d656e74206661696c6564000000000000000000000000000000000000600082015250565b60006127dd600e83611f68565b91506127e8826127a7565b602082019050919050565b6000602082019050818103600083015261280c816127d0565b9050919050565b7f4e487b7100000000000000000000000000000000000000000000000000000000600052601160045260246000fd5b600061284d8261200f565b91507fffffffffffffffffffffffffffffffffffffffffffffffffffffffffffffffff820361287f5761287e612813565b5b600182019050919050565b600060408201905061289f60008301856120a4565b6128ac602083018461231e565b9392505050565b7f5769746864726177616c206661696c6564000000000000000000000000000000600082015250565b60006128e9601183611f68565b91506128f4826128b3565b602082019050919050565b60006020820190508181036000830152612918816128dc565b9050919050565b600081905092915050565b600061293582611f5d565b61293f818561291f565b935061294f818560208601611f79565b80840191505092915050565b6000612967828561292a565b9150612973828461292a565b91508190509392505050565b60008190508160005260206000209050919050565b60006020601f8301049050919050565b600082821b905092915050565b6000600883026129e17fffffffffffffffffffffffffffffffffffffffffffffffffffffffffffffffff826129a4565b6129eb86836129a4565b95508019841693508086168417925050509392505050565b6000612a1e612a19612a148461200f565b612375565b61200f565b9050919050565b6000819050919050565b612a3883612a03565b612a4c612a4482612a25565b8484546129b1565b825550505050565b600090565b612a61612a54565b612a6c818484612a2f565b505050565b5b81811015612a9057612a85600082612a59565b600181019050612a72565b5050565b601f821115612ad557612aa68161297f565b612aaf84612994565b81016020851015612abe578190505b612ad2612aca85612994565b830182612a71565b50505b505050565b600082821c905092915050565b6000612af860001984600802612ada565b1980831691505092915050565b6000612b118383612ae7565b9150826002028217905092915050565b612b2a82611f5d565b67ffffffffffffffff811115612b4357612b42612197565b5b612b4d82546125ee565b612b58828285612a94565b600060209050601f831160018114612b8b5760008415612b79578287015190505b612b838582612b05565b865550612beb565b601f198416612b998661297f565b60005b82811015612bc157848901518255600182019150602085019450602081019050612b9c565b86831015612bde5784890151612bda601f891682612ae7565b8355505b6001600288020188555050505b505050505050565b600081519050919050565b600082825260208201905092915050565b6000612c1a82612bf3565b612c248185612bfe565b9350612c34818560208601611f79565b612c3d81611fa3565b840191505092915050565b6000608082019050612c5d60008301876120a4565b612c6a60208301866120a4565b612c77604083018561231e565b8181036060830152612c898184612c0f565b905095945050505050565b600081519050612ca381611ece565b92915050565b600060208284031215612cbf57612cbe611e98565b5b6000612ccd84828501612c94565b91505092915050565b7f4e487b7100000000000000000000000000000000000000000000000000000000600052601260045260246000fdfea26469706673582212209b7a49ca22d0e062d8bef20aaa54616ef88c58e4daa402a3ede26c275c610ccd64736f6c634300081c0033",
  "linkReferences": {},
  "deployedLinkReferences": {}
}